{
  "_format": "hh3-artifact-1",
  "contractName": "HealthcarePlatform",
  "sourceName": "contracts/HealthcarePlatform.sol",
  "abi": [
    {
      "inputs": [],
      "stateMutability": "nonpayable",
      "type": "constructor"
    },
    {
      "anonymous": false,
      "inputs": [
        {
          "indexed": true,
          "internalType": "address",
          "name": "account",
          "type": "address"
        },
        {
          "indexed": true,
          "internalType": "address",
          "name": "operator",
          "type": "address"
        },
        {
          "indexed": false,
          "internalType": "bool",
          "name": "approved",
          "type": "bool"
        }
      ],
      "name": "ApprovalForAll",
      "type": "event"
    },
    {
      "anonymous": false,
      "inputs": [
        {
          "indexed": true,
          "internalType": "address",
          "name": "operator",
          "type": "address"
        },
        {
          "indexed": true,
          "internalType": "address",
          "name": "from",
          "type": "address"
        },
        {
          "indexed": true,
          "internalType": "address",
          "name": "to",
          "type": "address"
        },
        {
          "indexed": false,
          "internalType": "uint256",
          "name": "id",
          "type": "uint256"
        },
        {
          "indexed": false,
          "internalType": "uint256",
          "name": "value",
          "type": "uint256"
        }
      ],
      "name": "TransferSingle",
      "type": "event"
    },
    {
      "anonymous": false,
      "inputs": [
        {
          "indexed": false,
          "internalType": "string",
          "name": "value",
          "type": "string"
        },
        {
          "indexed": true,
          "internalType": "uint256",
          "name": "id",
          "type": "uint256"
        }
      ],
      "name": "URI",
      "type": "event"
    },
    {
      "inputs": [
        {
          "internalType": "address",
          "name": "admin",
          "type": "address"
        }
      ],
      "name": "addAdmin",
      "outputs": [],
      "stateMutability": "nonpayable",
      "type": "function"
    },
    {
      "inputs": [
        {
          "internalType": "address",
          "name": "",
          "type": "address"
        }
      ],
      "name": "admins",
      "outputs": [
        {
          "internalType": "bool",
          "name": "",
          "type": "bool"
        }
      ],
      "stateMutability": "view",
      "type": "function"
    },
    {
      "inputs": [
        {
          "internalType": "address",
          "name": "user",
          "type": "address"
        },
        {
          "internalType": "enum UserType",
          "name": "role",
          "type": "uint8"
        }
      ],
      "name": "assignRole",
      "outputs": [],
      "stateMutability": "nonpayable",
      "type": "function"
    },
    {
      "inputs": [
        {
          "internalType": "address",
          "name": "account",
          "type": "address"
        },
        {
          "internalType": "uint256",
          "name": "id",
          "type": "uint256"
        }
      ],
      "name": "balanceOf",
      "outputs": [
        {
          "internalType": "uint256",
          "name": "",
          "type": "uint256"
        }
      ],
      "stateMutability": "view",
      "type": "function"
    },
    {
      "inputs": [
        {
          "internalType": "address[]",
          "name": "accounts",
          "type": "address[]"
        },
        {
          "internalType": "uint256[]",
          "name": "ids",
          "type": "uint256[]"
        }
      ],
      "name": "balanceOfBatch",
      "outputs": [
        {
          "internalType": "uint256[]",
          "name": "",
          "type": "uint256[]"
        }
      ],
      "stateMutability": "view",
      "type": "function"
    },
    {
      "inputs": [
        {
          "internalType": "uint256",
          "name": "tokenId",
          "type": "uint256"
        }
      ],
      "name": "getCredentialExpiry",
      "outputs": [
        {
          "internalType": "uint256",
          "name": "",
          "type": "uint256"
        }
      ],
      "stateMutability": "view",
      "type": "function"
    },
    {
      "inputs": [
        {
          "internalType": "uint256",
          "name": "tokenId",
          "type": "uint256"
        }
      ],
      "name": "getCredentialUrl",
      "outputs": [
        {
          "internalType": "string",
          "name": "",
          "type": "string"
        }
      ],
      "stateMutability": "view",
      "type": "function"
    },
    {
      "inputs": [
        {
          "internalType": "address",
          "name": "practitioner",
          "type": "address"
        }
      ],
      "name": "getPractitionerTokenId",
      "outputs": [
        {
          "internalType": "uint256",
          "name": "",
          "type": "uint256"
        }
      ],
      "stateMutability": "view",
      "type": "function"
    },
    {
      "inputs": [
        {
          "internalType": "address",
          "name": "user",
          "type": "address"
        }
      ],
      "name": "getRole",
      "outputs": [
        {
          "internalType": "enum UserType",
          "name": "",
          "type": "uint8"
        }
      ],
      "stateMutability": "view",
      "type": "function"
    },
    {
      "inputs": [
        {
          "internalType": "uint256",
          "name": "tokenId",
          "type": "uint256"
        }
      ],
      "name": "getTokenUri",
      "outputs": [
        {
          "internalType": "string",
          "name": "",
          "type": "string"
        }
      ],
      "stateMutability": "view",
      "type": "function"
    },
    {
      "inputs": [
        {
          "internalType": "address",
          "name": "account",
          "type": "address"
        },
        {
          "internalType": "address",
          "name": "operator",
          "type": "address"
        }
      ],
      "name": "isApprovedForAll",
      "outputs": [
        {
          "internalType": "bool",
          "name": "",
          "type": "bool"
        }
      ],
      "stateMutability": "view",
      "type": "function"
    },
    {
      "inputs": [
        {
          "internalType": "address",
          "name": "practitioner",
          "type": "address"
        },
        {
          "internalType": "uint256",
          "name": "tokenId",
          "type": "uint256"
        }
      ],
      "name": "isRole",
      "outputs": [
        {
          "internalType": "bool",
          "name": "",
          "type": "bool"
        }
      ],
      "stateMutability": "view",
      "type": "function"
    },
    {
      "inputs": [
        {
          "internalType": "address",
          "name": "practitioner",
          "type": "address"
        },
        {
          "internalType": "uint256",
          "name": "tokenId",
          "type": "uint256"
        }
      ],
      "name": "isValidCredential",
      "outputs": [
        {
          "internalType": "bool",
          "name": "",
          "type": "bool"
        }
      ],
      "stateMutability": "view",
      "type": "function"
    },
    {
      "inputs": [
        {
          "internalType": "address",
          "name": "practitioner",
          "type": "address"
        }
      ],
      "name": "issueNftCredentialToPractitioner",
      "outputs": [],
      "stateMutability": "nonpayable",
      "type": "function"
    },
    {
      "inputs": [],
      "name": "nextTokenId",
      "outputs": [
        {
          "internalType": "uint256",
          "name": "",
          "type": "uint256"
        }
      ],
      "stateMutability": "view",
      "type": "function"
    },
    {
      "inputs": [],
      "name": "owner",
      "outputs": [
        {
          "internalType": "address",
          "name": "",
          "type": "address"
        }
      ],
      "stateMutability": "view",
      "type": "function"
    },
    {
      "inputs": [
        {
          "internalType": "address",
          "name": "",
          "type": "address"
        }
      ],
      "name": "practitionerRoles",
      "outputs": [
        {
          "internalType": "enum UserType",
          "name": "",
          "type": "uint8"
        }
      ],
      "stateMutability": "view",
      "type": "function"
    },
    {
      "inputs": [
        {
          "internalType": "address",
          "name": "",
          "type": "address"
        }
      ],
      "name": "practitionerToTokenId",
      "outputs": [
        {
          "internalType": "uint256",
          "name": "",
          "type": "uint256"
        }
      ],
      "stateMutability": "view",
      "type": "function"
    },
    {
      "inputs": [
        {
          "internalType": "address",
          "name": "practitioner",
          "type": "address"
        },
        {
          "internalType": "string",
          "name": "uri",
          "type": "string"
        },
        {
          "internalType": "uint256",
          "name": "validUntil",
          "type": "uint256"
        }
      ],
      "name": "registerPractitionerMetadata",
      "outputs": [],
      "stateMutability": "nonpayable",
      "type": "function"
    },
    {
      "inputs": [
        {
          "internalType": "address",
          "name": "adminToremove",
          "type": "address"
        }
      ],
      "name": "removeAdmin",
      "outputs": [],
      "stateMutability": "nonpayable",
      "type": "function"
    },
    {
      "inputs": [
        {
          "internalType": "address",
          "name": "practitioner",
          "type": "address"
        }
      ],
      "name": "renewNftCredentialForPractitioner",
      "outputs": [],
      "stateMutability": "nonpayable",
      "type": "function"
    },
    {
      "inputs": [
        {
          "internalType": "address",
          "name": "practitioner",
          "type": "address"
        }
      ],
      "name": "revokeNftCredentialFromPractitioner",
      "outputs": [],
      "stateMutability": "nonpayable",
      "type": "function"
    },
    {
      "inputs": [
        {
          "internalType": "address",
          "name": "user",
          "type": "address"
        }
      ],
      "name": "revokeRole",
      "outputs": [],
      "stateMutability": "nonpayable",
      "type": "function"
    },
    {
      "inputs": [
        {
          "internalType": "address",
          "name": "operator",
          "type": "address"
        },
        {
          "internalType": "bool",
          "name": "approved",
          "type": "bool"
        }
      ],
      "name": "setApprovalForAll",
      "outputs": [],
      "stateMutability": "nonpayable",
      "type": "function"
    },
    {
      "inputs": [
        {
          "internalType": "uint256",
          "name": "",
          "type": "uint256"
        }
      ],
      "name": "tokenIdToExpiry",
      "outputs": [
        {
          "internalType": "uint256",
          "name": "",
          "type": "uint256"
        }
      ],
      "stateMutability": "view",
      "type": "function"
    },
    {
      "inputs": [
        {
          "internalType": "uint256",
          "name": "",
          "type": "uint256"
        }
      ],
      "name": "tokenIdToPractitioner",
      "outputs": [
        {
          "internalType": "address",
          "name": "",
          "type": "address"
        }
      ],
      "stateMutability": "view",
      "type": "function"
    },
    {
      "inputs": [
        {
          "internalType": "uint256",
          "name": "",
          "type": "uint256"
        }
      ],
      "name": "tokenIdToUri",
      "outputs": [
        {
          "internalType": "string",
          "name": "",
          "type": "string"
        }
      ],
      "stateMutability": "view",
      "type": "function"
    },
    {
      "inputs": [
        {
          "internalType": "address",
          "name": "newOwner",
          "type": "address"
        }
      ],
      "name": "transferOwnership",
      "outputs": [],
      "stateMutability": "nonpayable",
      "type": "function"
    }
  ],
  "bytecode": "0x608060405260016009553480156013575f5ffd5b505f80546001600160a01b0319163390811782558152600160208190526040909120805460ff191690911790556114b18061004d5f395ff3fe608060405234801561000f575f5ffd5b50600436106101ba575f3560e01c806375ce24b0116100f3578063b18d381311610093578063e3d3c0361161006e578063e3d3c03614610435578063e985e9c514610457578063f12af12914610492578063f2fde38b146104b1575f5ffd5b8063b18d38131461040f578063d53739b514610422578063d8704146146103b1575f5ffd5b80638da5cb5b116100ce5780638da5cb5b146103c45780639d5513cd146103d6578063a19c973b146103e9578063a22cb465146103fc575f5ffd5b806375ce24b01461037657806380e52e3f1461039e5780638ad91345146103b1575f5ffd5b8063429b62e51161015e5780635b63389d116101395780635b63389d14610307578063630a195b14610347578063704802751461035a57806375794a3c1461036d575f5ffd5b8063429b62e51461028d57806344276733146102af5780634e1273f4146102e7575f5ffd5b8063102da39d11610199578063102da39d14610226578063119d209a146102455780631785f53c146102655780632a571aa41461027a575f5ffd5b8062fdd58e146101be5780630d7c5ba9146101e45780630e137b3e14610207575b5f5ffd5b6101d16101cc366004610f46565b6104c4565b6040519081526020015b60405180910390f35b6101f76101f2366004610f46565b6104ed565b60405190151581526020016101db565b6101d1610215366004610f6e565b5f9081526006602052604090205490565b6101d1610234366004610f6e565b60066020525f908152604090205481565b610258610253366004610f6e565b610546565b6040516101db9190610f85565b610278610273366004610fba565b6105dd565b005b610278610288366004610fba565b61062f565b6101f761029b366004610fba565b60016020525f908152604090205460ff1681565b6102da6102bd366004610fba565b6001600160a01b03165f9081526002602052604090205460ff1690565b6040516101db9190610fe7565b6102fa6102f5366004611055565b61075b565b6040516101db91906110c1565b61032f610315366004610f6e565b60046020525f90815260409020546001600160a01b031681565b6040516001600160a01b0390911681526020016101db565b610278610355366004611103565b61084d565b610278610368366004610fba565b6108b8565b6101d160095481565b6101d1610384366004610fba565b6001600160a01b03165f9081526003602052604090205490565b6102786103ac366004610fba565b610907565b6102586103bf366004610f6e565b610955565b5f5461032f906001600160a01b031681565b6102786103e4366004610fba565b6109f4565b6102786103f736600461114f565b610b1c565b61027861040a36600461121c565b610c9c565b6101f761041d366004610f46565b610d55565b610278610430366004610fba565b610d97565b6102da610443366004610fba565b60026020525f908152604090205460ff1681565b6101f761046536600461124a565b6001600160a01b039182165f90815260086020908152604080832093909416825291909152205460ff1690565b6101d16104a0366004610fba565b60036020525f908152604090205481565b6102786104bf366004610fba565b610e7e565b5f8181526007602090815260408083206001600160a01b03861684529091529020545b92915050565b5f818152600460205260408120546001600160a01b03848116911614801561053f57506001600160a01b0383165f9081526002602052604081205460ff16600681111561053c5761053c610fd3565b14155b9392505050565b60056020525f90815260409020805461055e9061127b565b80601f016020809104026020016040519081016040528092919081815260200182805461058a9061127b565b80156105d55780601f106105ac576101008083540402835291602001916105d5565b820191905f5260205f20905b8154815290600101906020018083116105b857829003601f168201915b505050505081565b5f546001600160a01b0316331461060f5760405162461bcd60e51b8152600401610606906112b3565b60405180910390fd5b6001600160a01b03165f908152600160205260409020805460ff19169055565b335f9081526001602052604090205460ff1661065d5760405162461bcd60e51b8152600401610606906112d6565b6001600160a01b0381165f90815260036020526040812054908190036106955760405162461bcd60e51b8152600401610606906112f9565b5f8181526007602090815260408083206001600160a01b0386168452909152902054156106f55760405162461bcd60e51b815260206004820152600e60248201526d105b1c9958591e481a5cdcdd595960921b6044820152606401610606565b5f8181526007602090815260408083206001600160a01b038616808552908352818420600190819055825186815293840152929133917fc3d58168c5ae7397731d063d5bbf3d657854427343f4c083240f7aacaa2d0f6291015b60405180910390a45050565b60605f8467ffffffffffffffff8111156107775761077761113b565b6040519080825280602002602001820160405280156107a0578160200160208202803683370190505b5090505f5b858110156108435760075f8686848181106107c2576107c2611321565b9050602002013581526020019081526020015f205f8888848181106107e9576107e9611321565b90506020020160208101906107fe9190610fba565b6001600160a01b03166001600160a01b031681526020019081526020015f205482828151811061083057610830611321565b60209081029190910101526001016107a5565b5095945050505050565b335f9081526001602052604090205460ff1661087b5760405162461bcd60e51b8152600401610606906112d6565b6001600160a01b0382165f908152600260205260409020805482919060ff191660018360068111156108af576108af610fd3565b02179055505050565b5f546001600160a01b031633146108e15760405162461bcd60e51b8152600401610606906112b3565b6001600160a01b03165f908152600160208190526040909120805460ff19169091179055565b335f9081526001602052604090205460ff166109355760405162461bcd60e51b8152600401610606906112d6565b6001600160a01b03165f908152600260205260409020805460ff19169055565b5f8181526005602052604090208054606091906109719061127b565b80601f016020809104026020016040519081016040528092919081815260200182805461099d9061127b565b80156109e85780601f106109bf576101008083540402835291602001916109e8565b820191905f5260205f20905b8154815290600101906020018083116109cb57829003601f168201915b50505050509050919050565b335f9081526001602052604090205460ff16610a225760405162461bcd60e51b8152600401610606906112d6565b6001600160a01b0381165f9081526003602052604081205490819003610a5a5760405162461bcd60e51b8152600401610606906112f9565b5f8181526007602090815260408083206001600160a01b0386168452909152902054600114610abb5760405162461bcd60e51b815260206004820152600d60248201526c139bc818dc9959195b9d1a585b609a1b6044820152606401610606565b5f8181526007602090815260408083206001600160a01b03861680855292528083208390555133907fc3d58168c5ae7397731d063d5bbf3d657854427343f4c083240f7aacaa2d0f629061074f908690600190918252602082015260400190565b335f9081526001602052604090205460ff16610b4a5760405162461bcd60e51b8152600401610606906112d6565b6001600160a01b038316610b925760405162461bcd60e51b815260206004820152600f60248201526e496e76616c6964206164647265737360881b6044820152606401610606565b6001600160a01b0383165f9081526003602052604090205415610bec5760405162461bcd60e51b8152602060048201526012602482015271105b1c9958591e481c9959da5cdd195c995960721b6044820152606401610606565b600980545f9182610bfc83611349565b909155506001600160a01b0385165f8181526003602090815260408083208590558483526004825280832080546001600160a01b0319169094179093556005905220909150610c4b84826113ad565b505f81815260066020526040908190208390555181907f6bb7ff708619ba0610cba295a58592e0451dee2622938c8755667688daf3529b90610c8e908690610f85565b60405180910390a250505050565b336001600160a01b03831603610cea5760405162461bcd60e51b815260206004820152601360248201527221b0b73737ba1030b8383937bb329039b2b63360691b6044820152606401610606565b335f8181526008602090815260408083206001600160a01b03871680855290835292819020805460ff191686151590811790915590519081529192917f17307eab39ab6107e8899845ad3d59bd9653f200f220920489ca2b5937696c31910160405180910390a35050565b5f8181526007602090815260408083206001600160a01b0386168452909152812054600114801561053f5750505f908152600660205260409020544210919050565b335f9081526001602052604090205460ff16610dc55760405162461bcd60e51b8152600401610606906112d6565b6001600160a01b0381165f9081526003602052604081205490819003610dfd5760405162461bcd60e51b8152600401610606906112f9565b5f8181526007602090815260408083206001600160a01b0386168452909152902054600114610e5e5760405162461bcd60e51b815260206004820152600d60248201526c139bc818dc9959195b9d1a585b609a1b6044820152606401610606565b610e6c426301e13380611468565b5f918252600660205260409091205550565b5f546001600160a01b03163314610ea75760405162461bcd60e51b8152600401610606906112b3565b6001600160a01b038116610ef15760405162461bcd60e51b815260206004820152601160248201527024b73b30b634b2103732bb9037bbb732b960791b6044820152606401610606565b5f80546001600160a01b039092166001600160a01b031990921682178155908152600160208190526040909120805460ff19169091179055565b80356001600160a01b0381168114610f41575f5ffd5b919050565b5f5f60408385031215610f57575f5ffd5b610f6083610f2b565b946020939093013593505050565b5f60208284031215610f7e575f5ffd5b5035919050565b602081525f82518060208401528060208501604085015e5f604082850101526040601f19601f83011684010191505092915050565b5f60208284031215610fca575f5ffd5b61053f82610f2b565b634e487b7160e01b5f52602160045260245ffd5b602081016007831061100757634e487b7160e01b5f52602160045260245ffd5b91905290565b5f5f83601f84011261101d575f5ffd5b50813567ffffffffffffffff811115611034575f5ffd5b6020830191508360208260051b850101111561104e575f5ffd5b9250929050565b5f5f5f5f60408587031215611068575f5ffd5b843567ffffffffffffffff81111561107e575f5ffd5b61108a8782880161100d565b909550935050602085013567ffffffffffffffff8111156110a9575f5ffd5b6110b58782880161100d565b95989497509550505050565b602080825282518282018190525f918401906040840190835b818110156110f85783518352602093840193909201916001016110da565b509095945050505050565b5f5f60408385031215611114575f5ffd5b61111d83610f2b565b9150602083013560078110611130575f5ffd5b809150509250929050565b634e487b7160e01b5f52604160045260245ffd5b5f5f5f60608486031215611161575f5ffd5b61116a84610f2b565b9250602084013567ffffffffffffffff811115611185575f5ffd5b8401601f81018613611195575f5ffd5b803567ffffffffffffffff8111156111af576111af61113b565b604051601f8201601f19908116603f0116810167ffffffffffffffff811182821017156111de576111de61113b565b6040528181528282016020018810156111f5575f5ffd5b816020840160208301375f9181016020019190915293969395505050506040919091013590565b5f5f6040838503121561122d575f5ffd5b61123683610f2b565b915060208301358015158114611130575f5ffd5b5f5f6040838503121561125b575f5ffd5b61126483610f2b565b915061127260208401610f2b565b90509250929050565b600181811c9082168061128f57607f821691505b6020821081036112ad57634e487b7160e01b5f52602260045260245ffd5b50919050565b6020808252600990820152682737ba1037bbb732b960b91b604082015260600190565b6020808252600990820152682737ba1030b236b4b760b91b604082015260600190565b6020808252600e908201526d139bdd081c9959da5cdd195c995960921b604082015260600190565b634e487b7160e01b5f52603260045260245ffd5b634e487b7160e01b5f52601160045260245ffd5b5f6001820161135a5761135a611335565b5060010190565b601f8211156113a857805f5260205f20601f840160051c810160208510156113865750805b601f840160051c820191505b818110156113a5575f8155600101611392565b50505b505050565b815167ffffffffffffffff8111156113c7576113c761113b565b6113db816113d5845461127b565b84611361565b6020601f82116001811461140d575f83156113f65750848201515b5f19600385901b1c1916600184901b1784556113a5565b5f84815260208120601f198516915b8281101561143c578785015182556020948501946001909201910161141c565b508482101561145957868401515f19600387901b60f8161c191681555b50505050600190811b01905550565b808201808211156104e7576104e761133556fea2646970667358221220a333a997449570d6b0811b1163d766e5170149d61a381f2727ece3657e12de7f64736f6c634300081c0033",
  "linkReferences": {},
  "deployedLinkReferences": {},
  "immutableReferences": {},
  "inputSourceName": "project/contracts/HealthcarePlatform.sol",
  "buildInfoId": "solc-0_8_28-5ee7b44206ce25229155bb68072efab65bc79921"
}